:03000000020800F3
:10080000787FE4F6D8FD7581140208470208F0E409
:1008100093A3F8E493A34003F68001F208DFF48089
:1008200029E493A3F85407240CC8C333C4540F44D9
:1008300020C8834004F456800146F6DFE4800B01B3
:1008400002040810204080900939E47E019360BCC6
:10085000A3FF543F30E509541FFEE493A360010E4B
:10086000CF54C025E060A840B8E493A3FAE493A372
:10087000F8E493A3C8C582C8CAC583CAF0A3C8C593
:1008800082C8CAC583CADFE9DEE780BE8F14A90526
:10089000E51475F00A84FF7D031208C0E51475F0B5
:1008A0000A84AFF07D021208C0E975F00A84FF7D6A
:1008B000011208C0E975F00A84AFF0E4FD0208C037
:1008C00074082FF8E6F590ED7006C2B4C2B3801933
:1008D000BD0106D2B3C2B48010BD0206C2B3D2B409
:1008E0008007BD0304D2B3D2B47F057E000209198C
:1008F000E4F512F513AD13AF1212088C0513E513CE
:10090000B43C0DE4F5130512E512B43C03E4F51212
:100910007F647E0012091980DCE4FDFCC3ED9FECCE
:100920009E5015E4FBFA0BBB00010ABA04F8BBFBAE
:10093000F50DBD00010C80E4220A08C0F9A4B099AD
:060940009282F880900095
:00000001FF